{
  "contractName": "Prototype",
  "abi": [
    {
      "inputs": [],
      "payable": false,
      "stateMutability": "nonpayable",
      "type": "constructor"
    },
    {
      "anonymous": false,
      "inputs": [
        {
          "indexed": false,
          "internalType": "bytes32",
          "name": "current",
          "type": "bytes32"
        }
      ],
      "name": "test",
      "type": "event"
    },
    {
      "constant": false,
      "inputs": [
        {
          "internalType": "bytes32",
          "name": "New",
          "type": "bytes32"
        }
      ],
      "name": "write",
      "outputs": [],
      "payable": false,
      "stateMutability": "nonpayable",
      "type": "function"
    },
    {
      "constant": true,
      "inputs": [],
      "name": "read",
      "outputs": [
        {
          "internalType": "bytes32",
          "name": "",
          "type": "bytes32"
        }
      ],
      "payable": false,
      "stateMutability": "view",
      "type": "function"
    },
    {
      "constant": true,
      "inputs": [
        {
          "internalType": "bytes32",
          "name": "NewHash",
          "type": "bytes32"
        }
      ],
      "name": "check",
      "outputs": [
        {
          "internalType": "bool",
          "name": "",
          "type": "bool"
        }
      ],
      "payable": false,
      "stateMutability": "view",
      "type": "function"
    }
  ],
  "bytecode": "0x608060405234801561001057600080fd5b50600260405180807f48656c6c6f20576f726c64000000000000000000000000000000000000000000815250600b019050602060405180830381855afa15801561005e573d6000803e3d6000fd5b5050506040513d602081101561007357600080fd5b810190808051906020019092919050505060008190555061016d806100996000396000f3fe608060405234801561001057600080fd5b50600436106100415760003560e01c8063399e07921461004657806357de26a41461008c578063e020def2146100aa575b600080fd5b6100726004803603602081101561005c57600080fd5b81019080803590602001909291905050506100d8565b604051808215151515815260200191505060405180910390f35b6100946100ec565b6040518082815260200191505060405180910390f35b6100d6600480360360208110156100c057600080fd5b81019080803590602001909291905050506100f5565b005b6000805482146100e757600080fd5b919050565b60008054905090565b806000819055507f993723216d1ef2efd8d772844a1eb56f34d3b599f7f824f68a513ef4c19db5906000546040518082815260200191505060405180910390a15056fea265627a7a7231582029059c6087402a83a1e67f4c8c730cbb1301c85c80da85ac084eae675788d6e864736f6c63430005100032",
  "source": "pragma solidity >=0.5.0;\r\n\r\n\r\n\r\ncontract Prototype {\r\n\r\n    event test(bytes32 current);\r\n\r\n    bytes32 private MyHash;\r\n\r\n    constructor () public {\r\n        MyHash=sha256(\"Hello World\");\r\n    }\r\n\r\n    function write (bytes32 New) public {\r\n        MyHash=New;\r\n        emit test(MyHash);\r\n    }\r\n\r\n    function read () public view returns (bytes32) {\r\n        return MyHash;\r\n    }\r\n\r\n\r\n    function check(bytes32 NewHash) public view returns (bool){\r\n        require(NewHash==MyHash);\r\n    }\r\n}",
  "sourcePath": "C:/Users/pavlo/ethereum/truffle-smart-contract/contracts/Prototype.sol",
  "compiler": {
    "name": "solc",
    "version": "0.5.16+commit.9c3226ce.Emscripten.clang"
  },
  "schemaVersion": "3.2.5",
  "updatedAt": "2020-09-23T07:46:35.117Z",
  "networkType": "ethereum",
  "devdoc": {
    "methods": {}
  },
  "userdoc": {
    "methods": {}
  }
}